{
  "_format": "hh-sol-artifact-1",
  "contractName": "Raffle",
  "sourceName": "contracts/Raffle.sol",
  "abi": [
    {
      "inputs": [
        {
          "internalType": "address",
          "name": "vrfCoordinatorV2",
          "type": "address"
        },
        {
          "internalType": "uint256",
          "name": "entranceFee",
          "type": "uint256"
        },
        {
          "internalType": "bytes32",
          "name": "gasLane",
          "type": "bytes32"
        },
        {
          "internalType": "uint64",
          "name": "subscriptionId",
          "type": "uint64"
        },
        {
          "internalType": "uint32",
          "name": "callbackGasLimit",
          "type": "uint32"
        },
        {
          "internalType": "uint256",
          "name": "interval",
          "type": "uint256"
        }
      ],
      "stateMutability": "nonpayable",
      "type": "constructor"
    },
    {
      "inputs": [
        {
          "internalType": "address",
          "name": "have",
          "type": "address"
        },
        {
          "internalType": "address",
          "name": "want",
          "type": "address"
        }
      ],
      "name": "OnlyCoordinatorCanFulfill",
      "type": "error"
    },
    {
      "inputs": [],
      "name": "Raffle__NotOpen",
      "type": "error"
    },
    {
      "inputs": [],
      "name": "Raffle__SendMoreToEnterRaffle",
      "type": "error"
    },
    {
      "inputs": [],
      "name": "Raffle__TransferFialed",
      "type": "error"
    },
    {
      "inputs": [
        {
          "internalType": "uint256",
          "name": "currentBalance",
          "type": "uint256"
        },
        {
          "internalType": "uint256",
          "name": "numPlayers",
          "type": "uint256"
        },
        {
          "internalType": "uint256",
          "name": "raffleState",
          "type": "uint256"
        }
      ],
      "name": "Raffle__UpkeepNotNeeded",
      "type": "error"
    },
    {
      "anonymous": false,
      "inputs": [
        {
          "indexed": true,
          "internalType": "address",
          "name": "player",
          "type": "address"
        }
      ],
      "name": "RaffleEnter",
      "type": "event"
    },
    {
      "anonymous": false,
      "inputs": [
        {
          "indexed": true,
          "internalType": "uint256",
          "name": "requestId",
          "type": "uint256"
        }
      ],
      "name": "RequestRaffleWinner",
      "type": "event"
    },
    {
      "anonymous": false,
      "inputs": [
        {
          "indexed": true,
          "internalType": "address",
          "name": "winner",
          "type": "address"
        }
      ],
      "name": "WinnerPicked",
      "type": "event"
    },
    {
      "inputs": [
        {
          "internalType": "bytes",
          "name": "",
          "type": "bytes"
        }
      ],
      "name": "checkUpkeep",
      "outputs": [
        {
          "internalType": "bool",
          "name": "upkeepNeeded",
          "type": "bool"
        },
        {
          "internalType": "bytes",
          "name": "",
          "type": "bytes"
        }
      ],
      "stateMutability": "view",
      "type": "function"
    },
    {
      "inputs": [],
      "name": "enterRaffle",
      "outputs": [],
      "stateMutability": "payable",
      "type": "function"
    },
    {
      "inputs": [],
      "name": "getEntranceFee",
      "outputs": [
        {
          "internalType": "uint256",
          "name": "",
          "type": "uint256"
        }
      ],
      "stateMutability": "view",
      "type": "function"
    },
    {
      "inputs": [],
      "name": "getInterval",
      "outputs": [
        {
          "internalType": "uint256",
          "name": "",
          "type": "uint256"
        }
      ],
      "stateMutability": "view",
      "type": "function"
    },
    {
      "inputs": [],
      "name": "getLastTimeStamp",
      "outputs": [
        {
          "internalType": "uint256",
          "name": "",
          "type": "uint256"
        }
      ],
      "stateMutability": "view",
      "type": "function"
    },
    {
      "inputs": [],
      "name": "getNumWords",
      "outputs": [
        {
          "internalType": "uint256",
          "name": "",
          "type": "uint256"
        }
      ],
      "stateMutability": "pure",
      "type": "function"
    },
    {
      "inputs": [],
      "name": "getNumberOfPlayers",
      "outputs": [
        {
          "internalType": "uint256",
          "name": "",
          "type": "uint256"
        }
      ],
      "stateMutability": "view",
      "type": "function"
    },
    {
      "inputs": [
        {
          "internalType": "uint256",
          "name": "index",
          "type": "uint256"
        }
      ],
      "name": "getPlayer",
      "outputs": [
        {
          "internalType": "address",
          "name": "",
          "type": "address"
        }
      ],
      "stateMutability": "view",
      "type": "function"
    },
    {
      "inputs": [],
      "name": "getRaffleState",
      "outputs": [
        {
          "internalType": "enum Raffle.RaffleState",
          "name": "",
          "type": "uint8"
        }
      ],
      "stateMutability": "view",
      "type": "function"
    },
    {
      "inputs": [],
      "name": "getRecentWinner",
      "outputs": [
        {
          "internalType": "address",
          "name": "",
          "type": "address"
        }
      ],
      "stateMutability": "view",
      "type": "function"
    },
    {
      "inputs": [],
      "name": "getRequestConfirmations",
      "outputs": [
        {
          "internalType": "uint256",
          "name": "",
          "type": "uint256"
        }
      ],
      "stateMutability": "pure",
      "type": "function"
    },
    {
      "inputs": [
        {
          "internalType": "bytes",
          "name": "",
          "type": "bytes"
        }
      ],
      "name": "performUpkeep",
      "outputs": [],
      "stateMutability": "nonpayable",
      "type": "function"
    },
    {
      "inputs": [
        {
          "internalType": "uint256",
          "name": "requestId",
          "type": "uint256"
        },
        {
          "internalType": "uint256[]",
          "name": "randomWords",
          "type": "uint256[]"
        }
      ],
      "name": "rawFulfillRandomWords",
      "outputs": [],
      "stateMutability": "nonpayable",
      "type": "function"
    }
  ],
  "bytecode": "0x6101606040523480156200001257600080fd5b506040516200187c3803806200187c833981810160405281019062000038919062000294565b858073ffffffffffffffffffffffffffffffffffffffff1660808173ffffffffffffffffffffffffffffffffffffffff1681525050508460a081815250508573ffffffffffffffffffffffffffffffffffffffff1660c08173ffffffffffffffffffffffffffffffffffffffff16815250508360e081815250508267ffffffffffffffff166101008167ffffffffffffffff16815250508163ffffffff166101208163ffffffff16815250506000600160146101000a81548160ff021916908360018111156200010d576200010c62000330565b5b0217905550426002819055508061014081815250505050505050506200035f565b600080fd5b600073ffffffffffffffffffffffffffffffffffffffff82169050919050565b6000620001608262000133565b9050919050565b620001728162000153565b81146200017e57600080fd5b50565b600081519050620001928162000167565b92915050565b6000819050919050565b620001ad8162000198565b8114620001b957600080fd5b50565b600081519050620001cd81620001a2565b92915050565b6000819050919050565b620001e881620001d3565b8114620001f457600080fd5b50565b6000815190506200020881620001dd565b92915050565b600067ffffffffffffffff82169050919050565b6200022d816200020e565b81146200023957600080fd5b50565b6000815190506200024d8162000222565b92915050565b600063ffffffff82169050919050565b6200026e8162000253565b81146200027a57600080fd5b50565b6000815190506200028e8162000263565b92915050565b60008060008060008060c08789031215620002b457620002b36200012e565b5b6000620002c489828a0162000181565b9650506020620002d789828a01620001bc565b9550506040620002ea89828a01620001f7565b9450506060620002fd89828a016200023c565b93505060806200031089828a016200027d565b92505060a06200032389828a01620001bc565b9150509295509295509295565b7f4e487b7100000000000000000000000000000000000000000000000000000000600052602160045260246000fd5b60805160a05160c05160e0516101005161012051610140516114ad620003cf600039600081816107dd01526108860152600061069b01526000610678015260006106570152600061061b0152600081816102fa01526103f7015260008181610337015261038b01526114ad6000f3fe6080604052600436106100c25760003560e01c806353a2c19a1161007f57806391ad27b41161005957806391ad27b414610238578063c1c244e814610263578063e55ae4e81461028e578063fd6673f5146102cb576100c2565b806353a2c19a146101a45780635f1b0fd8146101cf5780636e04ff0d146101fa576100c2565b806309bc33a7146100c7578063115cbaf5146100f25780631fe543e31461011d5780632cfcc539146101465780634585e33b14610150578063473f1ddc14610179575b600080fd5b3480156100d357600080fd5b506100dc6102f6565b6040516100e99190610c37565b60405180910390f35b3480156100fe57600080fd5b5061010761031e565b6040516101149190610cc9565b60405180910390f35b34801561012957600080fd5b50610144600480360381019061013f9190610e7d565b610335565b005b61014e6103f5565b005b34801561015c57600080fd5b5061017760048036038101906101729190610f34565b610564565b005b34801561018557600080fd5b5061018e610754565b60405161019b9190610fc2565b60405180910390f35b3480156101b057600080fd5b506101b961077e565b6040516101c69190610c37565b60405180910390f35b3480156101db57600080fd5b506101e461078d565b6040516101f19190610c37565b60405180910390f35b34801561020657600080fd5b50610221600480360381019061021c9190611092565b61079a565b60405161022f929190611175565b60405180910390f35b34801561024457600080fd5b5061024d610882565b60405161025a9190610c37565b60405180910390f35b34801561026f57600080fd5b506102786108aa565b6040516102859190610c37565b60405180910390f35b34801561029a57600080fd5b506102b560048036038101906102b091906111a5565b6108b4565b6040516102c29190610fc2565b60405180910390f35b3480156102d757600080fd5b506102e06108fb565b6040516102ed9190610c37565b60405180910390f35b60007f0000000000000000000000000000000000000000000000000000000000000000905090565b6000600160149054906101000a900460ff16905090565b7f000000000000000000000000000000000000000000000000000000000000000073ffffffffffffffffffffffffffffffffffffffff163373ffffffffffffffffffffffffffffffffffffffff16146103e757337f00000000000000000000000000000000000000000000000000000000000000006040517f1cf993f40000000000000000000000000000000000000000000000000000000081526004016103de9291906111d2565b60405180910390fd5b6103f18282610907565b5050565b7f000000000000000000000000000000000000000000000000000000000000000034101561044f576040517f3038c00a00000000000000000000000000000000000000000000000000000000815260040160405180910390fd5b6000600181111561046357610462610c52565b5b600160149054906101000a900460ff16600181111561048557610484610c52565b5b146104bc576040517f1425571c00000000000000000000000000000000000000000000000000000000815260040160405180910390fd5b6000339080600181540180825580915050600190039060005260206000200160009091909190916101000a81548173ffffffffffffffffffffffffffffffffffffffff021916908373ffffffffffffffffffffffffffffffffffffffff1602179055503373ffffffffffffffffffffffffffffffffffffffff167f0805e1d667bddb8a95f0f09880cf94f403fb596ce79928d9f29b74203ba284d460405160405180910390a2565b600061057e6040518060200160405280600081525061079a565b509050806105ed5747600080549050600160149054906101000a900460ff1660018111156105af576105ae610c52565b5b6040517f584327aa0000000000000000000000000000000000000000000000000000000081526004016105e4939291906111fb565b60405180910390fd5b60018060146101000a81548160ff0219169083600181111561061257610611610c52565b5b021790555060007f000000000000000000000000000000000000000000000000000000000000000073ffffffffffffffffffffffffffffffffffffffff16635d3b1d307f00000000000000000000000000000000000000000000000000000000000000007f000000000000000000000000000000000000000000000000000000000000000060037f000000000000000000000000000000000000000000000000000000000000000060016040518663ffffffff1660e01b81526004016106dc9594939291906112aa565b6020604051808303816000875af11580156106fb573d6000803e3d6000fd5b505050506040513d601f19601f8201168201806040525081019061071f9190611312565b9050807fde6349b018d6c03d837b67d9a198a6ba4842546f2295fe963fae141e5dbaef8160405160405180910390a250505050565b6000600160009054906101000a900473ffffffffffffffffffffffffffffffffffffffff16905090565b6000600163ffffffff16905090565b6000600361ffff16905090565b600060606000600160149054906101000a900460ff1660018111156107c2576107c1610c52565b5b600060018111156107d6576107d5610c52565b5b14905060007f00000000000000000000000000000000000000000000000000000000000000006002544261080a919061136e565b1190506000806000805490501190506000804711905082801561082a5750835b80156108335750805b801561083c5750815b9550856040518060400160405280600381526020017f30783000000000000000000000000000000000000000000000000000000000008152509550955050505050915091565b60007f0000000000000000000000000000000000000000000000000000000000000000905090565b6000600254905090565b60008082815481106108c9576108c86113a2565b5b9060005260206000200160009054906101000a900473ffffffffffffffffffffffffffffffffffffffff169050919050565b60008080549050905090565b6000808054905082600081518110610922576109216113a2565b5b60200260200101516109349190611400565b90506000818154811061094a576109496113a2565b5b9060005260206000200160009054906101000a900473ffffffffffffffffffffffffffffffffffffffff16600160006101000a81548173ffffffffffffffffffffffffffffffffffffffff021916908373ffffffffffffffffffffffffffffffffffffffff1602179055506000600160146101000a81548160ff021916908360018111156109db576109da610c52565b5b0217905550600067ffffffffffffffff8111156109fb576109fa610d3a565b5b604051908082528060200260200182016040528015610a295781602001602082028036833780820191505090505b5060009080519060200190610a3f929190610b77565b50426002819055506000600160009054906101000a900473ffffffffffffffffffffffffffffffffffffffff1673ffffffffffffffffffffffffffffffffffffffff1647604051610a8f90611462565b60006040518083038185875af1925050503d8060008114610acc576040519150601f19603f3d011682016040523d82523d6000602084013e610ad1565b606091505b5050905080610b0c576040517f3cffbe7700000000000000000000000000000000000000000000000000000000815260040160405180910390fd5b600160009054906101000a900473ffffffffffffffffffffffffffffffffffffffff1673ffffffffffffffffffffffffffffffffffffffff167f5b690ec4a06fe979403046eaeea5b3ce38524683c3001f662c8b5a829632f7df60405160405180910390a250505050565b828054828255906000526020600020908101928215610bf0579160200282015b82811115610bef5782518260006101000a81548173ffffffffffffffffffffffffffffffffffffffff021916908373ffffffffffffffffffffffffffffffffffffffff16021790555091602001919060010190610b97565b5b509050610bfd9190610c01565b5090565b5b80821115610c1a576000816000905550600101610c02565b5090565b6000819050919050565b610c3181610c1e565b82525050565b6000602082019050610c4c6000830184610c28565b92915050565b7f4e487b7100000000000000000000000000000000000000000000000000000000600052602160045260246000fd5b60028110610c9257610c91610c52565b5b50565b6000819050610ca382610c81565b919050565b6000610cb382610c95565b9050919050565b610cc381610ca8565b82525050565b6000602082019050610cde6000830184610cba565b92915050565b6000604051905090565b600080fd5b600080fd5b610d0181610c1e565b8114610d0c57600080fd5b50565b600081359050610d1e81610cf8565b92915050565b600080fd5b6000601f19601f8301169050919050565b7f4e487b7100000000000000000000000000000000000000000000000000000000600052604160045260246000fd5b610d7282610d29565b810181811067ffffffffffffffff82111715610d9157610d90610d3a565b5b80604052505050565b6000610da4610ce4565b9050610db08282610d69565b919050565b600067ffffffffffffffff821115610dd057610dcf610d3a565b5b602082029050602081019050919050565b600080fd5b6000610df9610df484610db5565b610d9a565b90508083825260208201905060208402830185811115610e1c57610e1b610de1565b5b835b81811015610e455780610e318882610d0f565b845260208401935050602081019050610e1e565b5050509392505050565b600082601f830112610e6457610e63610d24565b5b8135610e74848260208601610de6565b91505092915050565b60008060408385031215610e9457610e93610cee565b5b6000610ea285828601610d0f565b925050602083013567ffffffffffffffff811115610ec357610ec2610cf3565b5b610ecf85828601610e4f565b9150509250929050565b600080fd5b60008083601f840112610ef457610ef3610d24565b5b8235905067ffffffffffffffff811115610f1157610f10610ed9565b5b602083019150836001820283011115610f2d57610f2c610de1565b5b9250929050565b60008060208385031215610f4b57610f4a610cee565b5b600083013567ffffffffffffffff811115610f6957610f68610cf3565b5b610f7585828601610ede565b92509250509250929050565b600073ffffffffffffffffffffffffffffffffffffffff82169050919050565b6000610fac82610f81565b9050919050565b610fbc81610fa1565b82525050565b6000602082019050610fd76000830184610fb3565b92915050565b600080fd5b600067ffffffffffffffff821115610ffd57610ffc610d3a565b5b61100682610d29565b9050602081019050919050565b82818337600083830152505050565b600061103561103084610fe2565b610d9a565b90508281526020810184848401111561105157611050610fdd565b5b61105c848285611013565b509392505050565b600082601f83011261107957611078610d24565b5b8135611089848260208601611022565b91505092915050565b6000602082840312156110a8576110a7610cee565b5b600082013567ffffffffffffffff8111156110c6576110c5610cf3565b5b6110d284828501611064565b91505092915050565b60008115159050919050565b6110f0816110db565b82525050565b600081519050919050565b600082825260208201905092915050565b60005b83811015611130578082015181840152602081019050611115565b60008484015250505050565b6000611147826110f6565b6111518185611101565b9350611161818560208601611112565b61116a81610d29565b840191505092915050565b600060408201905061118a60008301856110e7565b818103602083015261119c818461113c565b90509392505050565b6000602082840312156111bb576111ba610cee565b5b60006111c984828501610d0f565b91505092915050565b60006040820190506111e76000830185610fb3565b6111f46020830184610fb3565b9392505050565b60006060820190506112106000830186610c28565b61121d6020830185610c28565b61122a6040830184610c28565b949350505050565b6000819050919050565b61124581611232565b82525050565b600067ffffffffffffffff82169050919050565b6112688161124b565b82525050565b600061ffff82169050919050565b6112858161126e565b82525050565b600063ffffffff82169050919050565b6112a48161128b565b82525050565b600060a0820190506112bf600083018861123c565b6112cc602083018761125f565b6112d9604083018661127c565b6112e6606083018561129b565b6112f3608083018461129b565b9695505050505050565b60008151905061130c81610cf8565b92915050565b60006020828403121561132857611327610cee565b5b6000611336848285016112fd565b91505092915050565b7f4e487b7100000000000000000000000000000000000000000000000000000000600052601160045260246000fd5b600061137982610c1e565b915061138483610c1e565b925082820390508181111561139c5761139b61133f565b5b92915050565b7f4e487b7100000000000000000000000000000000000000000000000000000000600052603260045260246000fd5b7f4e487b7100000000000000000000000000000000000000000000000000000000600052601260045260246000fd5b600061140b82610c1e565b915061141683610c1e565b925082611426576114256113d1565b5b828206905092915050565b600081905092915050565b50565b600061144c600083611431565b91506114578261143c565b600082019050919050565b600061146d8261143f565b915081905091905056fea2646970667358221220735f0276dc5afe73b0196a0b1eab8949106be0a76903c1604e834303ba1ea35964736f6c63430008120033",
  "linkReferences": {},
  "deployedLinkReferences": {}
}